:100000000C9462000C948A000C948A000C948A0070
:100010000C948A000C948A000C948A000C948A0038
:100020000C948A000C948A000C948A000C948A0028
:100030000C948A000C948A000C948A000C948A0018
:100040000C94AF0A0C948A000C941F0B0C94F90AC0
:100050000C948A000C948A000C948A000C948A00F8
:100060000C9490090C948A000000000024002700E2
:100070002A0000000000250028002B0000000000DE
:1000800023002600290004040404040404040202DA
:100090000202020203030303030301020408102007
:1000A0004080010204081020010204081020000012
:1000B0000008000201000003040700000000000027
:1000C0000000510B11241FBECFEFD8E0DEBFCDBF23
:1000D00025E0AAE2B2E001C01D92A23FB207E1F71B
:1000E00012E0A0E0B1E0EEE1FDE202C005900D9269
:1000F000AA32B107D9F710E0C2E6D0E004C02197D8
:10010000FE010E949514C136D107C9F70E945F0F06
:100110000C948D160C9400000895089520919C0273
:10012000260F3327331F21323105ECF42091C00212
:10013000FC0190E080E0243069F082E00895A09115
:100140009C022191AC0144585D4FA40FB52FB11D05
:100150002C930196861798F380919C02680F609308
:100160009C0280E0089581E008950895E091ED02F9
:100170008091EC02E81730F4F0E0EA5AFD4F8081FC
:1001800090E008958FEF9FEF08959091ED02809198
:10019000EC022FEF3FEF981748F4E92FF0E0EA5A0E
:1001A000FD4F208130E09F5F9093ED02C9010895DB
:1001B0008091EC029091ED02891B990B0895CF92EA
:1001C000DF92EF92FF920F931F93CF93DF937C0107
:1001D000CB018A0120915502222389F0EB016B01AA
:1001E000C40ED51ECC15DD0569F06991D701ED91DE
:1001F000FC910190F081E02DC7010995F3CF642FA8
:100200000E948E00C801DF91CF911F910F91FF9046
:10021000EF90DF90CF900895CF93DF931F92CDB7EB
:10022000DEB76983209155022223F9F02091EA027A
:10023000203258F021E030E0FC013383228390E04B
:1002400080E00F90DF91CF9108958091EB02E82F2D
:10025000F0E0EB5CFD4F998190838F5F8093EB0220
:100260008093EA0281E090E0ECCF61E0CE0101965C
:100270000E948E00F7CF833081F028F4813099F00E
:100280008230A9F008958730A9F08830C9F0843011
:10029000B1F4809180008F7D03C0809180008F77C2
:1002A00080938000089584B58F7784BD089584B5C8
:1002B0008F7DFBCF8091B0008F778093B000089541
:1002C0008091B0008F7DF9CF1F93CF93DF93282FBC
:1002D00030E0F901E255FF4F8491F901E656FF4FF6
:1002E000D491F901EA57FF4FC491CC23A9F0162FFE
:1002F00081110E943B01EC2FF0E0EE0FFF1FEE5842
:10030000FF4FA591B4918FB7F894EC91111108C0EB
:10031000D095DE23DC938FBFDF91CF911F9108959D
:10032000DE2BF8CF1092C00281E08093C2021092BF
:10033000C10261E082E10E94640161E083E10E9408
:100340006401E9EBF0E080818E7F808380818D7F86
:10035000808388E48093B80085E48093BC0008958E
:10036000CF93DF9391E090937B028823B9F0C09103
:10037000B800D091BA008091BC008A7B8093BC0009
:1003800060E082E10E94640160E083E10E94640118
:100390000E949201D093BA00C093B800DF91CF9130
:1003A0000895CF93DF9390E0FC01E656FF4F249130
:1003B0008A579F4FFC0184918823D1F090E0880FE9
:1003C000991FFC01E859FF4FA591B491FC01EE582B
:1003D000FF4FC591D49161110EC09FB7F8948C91D5
:1003E000E22FE0958E238C932881E223E8839FBF40
:1003F000DF91CF9108958FB7F894EC91E22BEC93B5
:100400008FBFF6CF3FB7F8948091310290913202BE
:10041000A0913302B091340226B5A89B05C02F3FAE
:1004200019F00196A11DB11D3FBFBA2FA92F982F1A
:100430008827BC01CD01620F711D811D911D42E015
:10044000660F771F881F991F4A95D1F708958F92DD
:100450009F92AF92BF92CF92DF92EF92FF924B01A9
:100460005C010E9402026B017C010E9402026C1975
:100470007D098E099F09683E734081059105A8F3A7
:1004800021E0821A9108A108B10888EEC80E83E025
:10049000D81EE11CF11C81149104A104B10429F7B8
:1004A000FF90EF90DF90CF90BF90AF909F908F9094
:1004B0000895AF92BF92CF92DF92EF92FF920F9387
:1004C0001F93CF93DF936C017B018B01040F151FEA
:1004D000EB015E01AE18BF08C017D10759F0699152
:1004E000D601ED91FC910190F081E02DC6010995B6
:1004F000892B79F7C501DF91CF911F910F91FF9063
:10050000EF90DF90CF90BF90AF900895FC01538D96
:10051000448D252F30E0842F90E0821B930B5417DD
:1005200010F0CF96089501970895FC01918D828D6A
:10053000981761F0A28DAE0FBF2FB11D5D968C9103
:10054000928D9F5F9F73928F90E008958FEF9FEF42
:100550000895FC01918D828D981731F0828DE80FFE
:10056000F11D858D90E008958FEF9FEF0895FC01B8
:10057000918D228D892F90E0805C9F4F821B910985
:100580008F73992708958AEF92E00E94B70221E0C5
:10059000892B09F420E0822F089580E090E0892BD8
:1005A00029F00E94C30281110C9400000895FC01FF
:1005B000A48DA80FB92FB11DA35ABF4F2C91848DC4
:1005C00090E001968F739927848FA689B7892C9321
:1005D000A089B1898C91837080648C93938D848D74
:1005E000981306C00288F389E02D80818F7D808377
:1005F0000895EF92FF920F931F93CF93DF93EC0137
:1006000081E0888F9B8D8C8D98131AC0E889F989B9
:10061000808185FF15C09FB7F894EE89FF896083BC
:10062000E889F98980818370806480839FBF81E03D
:1006300090E0DF91CF911F910F91FF90EF9008957F
:10064000F62E0B8D10E00F5F1F4F0F731127E02E5A
:100650008C8D8E110CC00FB607FCFACFE889F98992
:10066000808185FFF5CFCE010E94D702F1CFEB8DBF
:10067000EC0FFD2FF11DE35AFF4FF0829FB7F89466
:100680000B8FEA89FB8980818062CFCFCF93DF9384
:10069000EC01888D8823B9F0AA89BB89E889F9899A
:1006A0008C9185FD03C0808186FD0DC00FB607FCCF
:1006B000F7CF8C9185FFF2CF808185FFEDCFCE0102
:1006C0000E94D702E9CFDF91CF910895CF92DF92B8
:1006D000EF92FF920F931F93CF93DF93D62F672F45
:1006E000FC01C48181E080935502C0932B021092DB
:1006F000EB021092EA028EEE92E00E940C016D2F46
:100700008EEE92E00E940C01D091EA02D13208F004
:1007100092C00E9402026B017C018091C002811193
:1007200065C082E08093C00281E08093C2028FEFB7
:100730008093BF021092E402D093E302A5E3B2E0FB
:10074000E3ECF2E080E0D81385C01092E5028091DE
:10075000E502CC0FC82BC093E5028091C102813025
:1007600009F07CC01092C1020E9402026B017C0160
:100770008091E5028093BB0080917702909178028E
:10078000A0917902B0917A02892B8A2B8B2B99F058
:100790000E94020200917702109178022091790262
:1007A00030917A026C197D098E099F090617170787
:1007B00028073907E0F18091BC0083FDD9CF85EC93
:1007C0008093BC000E9402026B017C018091C002F8
:1007D000823009F445C08091BF028F3F61F1809162
:1007E000BF02803241F18091BF0225C08091770223
:1007F00090917802A0917902B0917A02892B8A2B8C
:100800008B2B09F48ACF0E9402020091770210918B
:1008100078022091790230917A026C197D098E0953
:100820009F09061717072807390708F076CF809128
:1008300076020E94B0011092EB021092EA0210922E
:100840005502DF91CF911F910F91FF90EF90DF90B4
:10085000CF9008959D9191938F5F75CF85EEB0CF26
:100860008091770290917802A0917902B0917A02FA
:10087000892B8A2B8B2B09F4A9CF0E9402020091AD
:100880007702109178022091790230917A026C19E6
:100890007D098E099F09061717072807390708F0F1
:1008A00095CFC5CFCF93DF93CDB7DEB728970FB6DF
:1008B000F894DEBF0FBECDBF98E0E6E0F1E0DE01C8
:1008C000119601900D929A95E1F790915E05961719
:1008D00010F46FEF690F70E0660F771F21E030E0D2
:1008E0002C0F3D1F620F731FFB016081860F806814
:1008F000682F70E086E595E028960FB6F894DEBF85
:100900000FBECDBFDF91CF910C94660361E070E024
:1009100086E595E00E9466038BE39FE10197F1F77E
:1009200080915F05882321F060E080E00C94520400
:1009300008951092ED021092EC021092EB021092C8
:10094000EA020E9492018CE890E09093E902809381
:10095000E8028DE890E09093E7028093E60280E160
:1009600080935B0580916105823018F098E1909347
:100970005B0580935E058BE39DE00197F1F7609145
:100980005B05606270E086E595E00E9466038BE49B
:1009900096E40197F1F760915B05606270E086E58F
:1009A00095E00E94660383E592E00197F1F760917C
:1009B0005B05606270E086E595E00E9466036091E9
:1009C0005B05606270E086E595E00E94660384E066
:1009D00080935C056CE070E086E595E00E9466031C
:1009E0000E94860482E080935D0566E070E086E503
:1009F00095E00E94660362E070E086E595E00E9463
:100A000066038BE39FE10197F1F7089570E070644E
:100A10000E94660381E090E00895089590E080E0F0
:100A20000895873F99F040F48F3DA1F08F3E81F00B
:100A30008F3B91F480E008958D3F31F08E3F71F04F
:100A40008B3F51F484E0089585E0089583E0089594
:100A500082E0089581E008958FEF089586E008957B
:100A6000FC01108211828CE291E0A0E0B0E086836C
:100A70009783A087B18761E08AE00E94D10161E09D
:100A80008BE00E94D10161E089E00E94D10161E028
:100A900087E00E94D10161E084E00E94D10161E021
:100AA00086E00E94D10160E085E00E94D10161E012
:100AB00082E00E94D10161E083E00E94D10160E008
:100AC00082E00E94640160E083E00C9464010F9373
:100AD0001F93CF93DF93082F162FD42FC8E06D2FCD
:100AE0006170802F0E946401D69561E0812F0E9481
:100AF000640160E0812F0E946401C15081F7DF91A1
:100B0000CF911F910F9108958F929F92AF92BF92B4
:100B1000CF92DF92EF92FF920F931F93CF93DF93C9
:100B2000962E10E000E0B12CC82FD0E0CE01825507
:100B30009F4F7C01FE01E656FF4F6F01CA57DF4F02
:100B400061E0892D0E946401F7018491F601A4906F
:100B5000FE018490882071F181110E943B01E82DF3
:100B6000F0E0EE0FFF1FE458FF4FA591B4918C9178
:100B7000A82231E009F430E0832F002E01C0880F55
:100B80000A94EAF7B82A60E0892D0E9464010F5F99
:100B90001F4F08301105A1F68B2DDF91CF911F91CA
:100BA0000F91FF90EF90DF90CF90BF90AF909F900C
:100BB0008F90089580E0E1CF4F925F926F927F9285
:100BC0008F929F92AF92BF92DF92EF92FF920F931C
:100BD0001F93CF93DF937C01C2E0D0E00FE010E0E1
:100BE000DC2E61E08C2F0E94640160E087E00E94AF
:100BF0006401C8010197F1F761E087E00E94640198
:100C0000C8010197F1F761E086E00E94640160E0AD
:100C100084E00E94640166E085E00E948405B82EAD
:100C200061E084E00E9464018B2D0E9411058730F1
:100C300008F04EC029E030E0C230D10511F428E0C0
:100C400030E097E0929FF001939FF00D1124E80FA0
:100C5000F11DEE0FFF1FEE59FA4F808191812FB7E2
:100C6000F89440912D0250912E0260912F027091C4
:100C700030022FBFD70112968D909D90AD90BC9001
:100C800015972A013B01481859086A087B081696EF
:100C90008D909D90AD90BC901997481459046A04AA
:100CA0007B04B0F0989F902D11248C9111962C917B
:100CB0001197829F802D1124981751F080818C9379
:100CC000818111968C93F7014283538364837583EA
:100CD00060E08D2D0E946401239781F4DF91CF9114
:100CE0001F910F91FF90EF90DF90BF90AF909F907A
:100CF0008F907F906F905F904F900895C3E0D0E009
:100D00006FCF4F925F926F927F928F929F92AF922E
:100D1000BF92CF92DF92EF92FF920F931F93CF93E8
:100D2000DF93EC0110E000E0812C912C54018394BE
:100D30002FE0E22EF12CD0902A0224013501002E62
:100D400004C0440C551C661C771C0A94D2F7CD2CA9
:100D5000C42860E08AE00E9464014C2D69E08BE0C9
:100D60000E94670561E08AE00E94640160E087E01C
:100D70000E946401C7010197F1F761E087E00E94DA
:100D80006401C7010197F1F740944D2040922A0277
:100D900061E086E00E94640160E084E00E946401FA
:100DA00066E085E00E948405D82E61E084E00E9420
:100DB00064018D2D0E941105873008F03EC097E038
:100DC000909FF001919FF00D1124E80FF11DEE0F9F
:100DD000FF1FEE59FA4FD08031812FB7F894409120
:100DE0002D0250912E0260912F02709130022FBF80
:100DF0004A805B806C807D80DB01CA018419950983
:100E0000A609B7094E805F806884798484159505AA
:100E1000A605B70590F0D39E902D112488812981D5
:100E2000829F802D1124981741F0808188838181D1
:100E300089834A835B836C837D8360E08AE00E94C0
:100E4000640140912A0269E08BE00E94670561E03D
:100E50008AE00E9464010F5F1F4F0A30110509F0FC
:100E60006ACFDF91CF911F910F91FF90EF90DF90AC
:100E7000CF90BF90AF909F908F907F906F905F903A
:100E80004F90089585ED8093BC00809177029091FA
:100E90007802A0917902B0917A020796A11DB11D46
:100EA00023E0B695A795979587952A95D1F7209138
:100EB000BC0024FD03C01092C00208954091770247
:100EC000509178026091790270917A02452B462BFD
:100ED000472B69F30097A105B10541F025E32A9559
:100EE000F1F700000197A109B109E1CF80917602E5
:100EF0000C94B001FB0101900020E9F73197AF019C
:100F0000461B570BDC01ED91FC910280F381E02D33
:100F100009948F929F92AF92BF92EF92FF920F939C
:100F20001F93CF93DF93CDB7DEB7A1970FB6F89499
:100F3000DEBF0FBECDBF7C01FA01CB0119A222306A
:100F400008F42AE08E010F5D1F4F822E912CB12CE8
:100F5000A12CBF01A50194010E947314F901CA01DB
:100F60006A300CF5605DD8016E938D01232B242B24
:100F7000252B79F790E080E0109721F0BD01C701A3
:100F80000E947A07A1960FB6F894DEBF0FBECDBFC0
:100F9000DF91CF911F910F91FF90EF90BF90AF9095
:100FA0009F908F900895695CDECFCF92DF92EF9291
:100FB000FF920F931F93CF93DF936B01770FEE0890
:100FC000FF08F7FE1FC0EC01E881F9810190F08174
:100FD000E02D6DE209958C0144275527BA014C1983
:100FE0005D096E097F092AE0CE010E948907800F02
:100FF000911FDF91CF911F910F91FF90EF90DF90A4
:10100000CF9008952AE0B701A601DF91CF911F91FB
:101010000F91FF90EF90DF90CF900C948907CF93C2
:10102000DF93BC018AEF92E00E947A07EC016DE445
:1010300071E08AEF92E00E947A078C0F9D1FDF918A
:10104000CF9108956115710511F00C947A0790E025
:1010500080E00895CF92DF92EF92FF920F93CF93AB
:10106000DF936C017B01D42FC22F60E080E00E94EF
:10107000520460915C05862F816080935C056960F5
:1010800070E086E595E00E94660360E571E086E524
:1010900095E00E942208B60186E595E00E94D507FA
:1010A00064E571E086E595E00E94220861E080E059
:1010B0000E94520461E671E086E595E00E942208F4
:1010C000B70186E595E00E94D50764E671E086E504
:1010D00095E00E94220862E080E00E94520460E5F0
:1010E00071E086E595E00E9422086FE671E0D1117B
:1010F00002C06AE971E086E595E00E94220861E796
:1011000071E086E595E00E94220863E080E00E949D
:10111000520460E571E086E595E00E9422086FE6E2
:1011200071E0C11102C06AE971E086E595E00E94B4
:10113000220860E871E086E595E00E942208602FB1
:1011400083E1DF91CF910F91FF90EF90DF90CF90EF
:101150000C945204EF92FF920F931F93CF93DF935F
:10116000CDB7DEB78C0160E080E00E945204609150
:101170005C056E7F60935C05686070E086E595E0D5
:101180000E94660360E971E086E595E00E9422080E
:10119000B80186E595E00E94D50761E080E00E94F5
:1011A0005204BE01655F7F4F86E595E00E942208EC
:1011B00062E089E00E9452040A8D1B8DC8010A97E3
:1011C0008A35910580F46AE971E086E595E00E9430
:1011D000220862E08AE00E945204B80186E595E0A8
:1011E0000E94D50712C0B80186E595E00A301105C6
:1011F000BCF70E94D50762E08AE00E94520468E9C9
:1012000071E086E595E00E94220863E083E00E9499
:10121000520410E000E083E0E82EF12C8C8D970161
:10122000281B3109021713074CF46CE971E086E5BD
:1012300095E00E9422080F5F1F4FF0CF10E000E002
:101240008C8D8017110651F04CF062EA71E086E552
:1012500095E00E9422080F5F1F4FF2CFDF91CF91E0
:101260001F910F91FF90EF900895FC018081918173
:10127000009711F00C94371508950F931F93CF9397
:10128000DF93EC0188819981009759F02A813B8195
:101290002617370730F081E0DF91CF911F910F9132
:1012A00008958B016F5F7F4F0E94C015009759F022
:1012B000998388831B830A832C813D81232B59F7D3
:1012C000FC011082E8CF80E0E7CFEF92FF920F930E
:1012D0001F93CF93DF93EC017B018A01BA010E9437
:1012E0003D0928813981811114C02115310519F07A
:1012F000C9010E943715198218821D821C821B8227
:101300001A82CE01DF91CF911F910F91FF90EF9044
:1013100008951D830C83B701C9010E948616F1CF81
:101320001F920F920FB60F9211242F933F934F935A
:101330005F936F937F938F939F93AF93BF93EF933D
:10134000FF938091B900887F803609F44AC0F0F598
:10135000883209F4A7C018F5803109F49BC0B8F4AD
:10136000882309F4F9C0883009F494C0FF91EF9103
:10137000BF91AF919F918F917F916F915F914F91AD
:101380003F912F910F900FBE0F901F9018958831AD
:1013900009F488C0803251F78093BF0214C08034B2
:1013A00009F49DC040F48033B9F38833F9F6809393
:1013B000BF0285ECB0C0803509F485C0883509F4DA
:1013C00096C0883499F60E944207D0CF883909F434
:1013D0008CC038F5883729F050F4883611F0803702
:1013E00029F683E08093C0021092BE0257C088386D
:1013F00009F47BC0803919F0803809F0B7CF8091AB
:10140000BE02803208F071C0E091BE0281E08E0F12
:101410008093BE028091BB00F0E0E256FD4F8083D6
:101420003DC0803B39F0E0F4803A09F479C0883A55
:1014300009F09CCF84E08093C00210929D0210922C
:101440009C02E091E802F091E902099580919C02EA
:1014500081110FC081E080939C0210927C0209C030
:10146000803C09F4A6CF883C09F4A3CF883B09F05F
:101470007DCFE0919D0281E08E0F80939D02F0E090
:10148000E458FD4F80818093BB0090919D02809134
:101490009C0229C08091E5028093BB0085EC80937B
:1014A000BC0064CF9091E4028091E302981758F554
:1014B000E091E40281E08E0F8093E402F0E0ED53CE
:1014C000FD4F8081E9CFE091E40281E08E0F8093AF
:1014D000E4028091BB00F0E0ED53FD4F80839091DA
:1014E000E4028091E3029817C8F285E8D8CFE09132
:1014F000E40281E08E0F8093E4028091BB00F0E073
:10150000ED53FD4F80838091C20281115CCF81E059
:101510008093C10284EA8093BC001092C00226CF5F
:1015200085EC8093BC001092C0028091BE02803294
:1015300030F4E091BE02F0E0E256FD4F108260917F
:10154000BE0270E0E091E602F091E7028EE992E0DF
:1015500009951092BE020ACF1092BF0234CF1F929B
:101560000F920FB60F9211242F933F938F939F9357
:10157000AF93BF9380912D0290912E02A0912F02E4
:10158000B091300230912C0223E0230F2D3758F513
:101590000196A11DB11D20932C0280932D029093E2
:1015A0002E02A0932F02B0933002809131029091CD
:1015B0003202A0913302B09134020196A11DB11DF7
:1015C0008093310290933202A0933302B09334029D
:1015D000BF91AF919F918F913F912F910F900FBE2F
:1015E0000F901F90189526E8230F0296A11DB11D9C
:1015F000D2CF1F920F920FB60F9211242F933F93C9
:101600004F935F936F937F938F939F93AF93BF930A
:10161000EF93FF938AEF92E00E94D702FF91EF9140
:10162000BF91AF919F918F917F916F915F914F91FA
:101630003F912F910F900FBE0F901F9018951F9202
:101640000F920FB60F9211242F938F939F93EF93C6
:10165000FF93E0910A03F0910B038081E091100366
:10166000F091110382FD1BC09081809113038F5F65
:101670008F7320911403821741F0E0911303F0E07F
:10168000E650FD4F958F80931303FF91EF919F914B
:101690008F912F910F900FBE0F901F901895808102
:1016A000F4CF2F923F924F925F926F927F928F92E0
:1016B0009F92AF92BF92CF92DF92EF92FF920F93E1
:1016C0001F93CF93DF93EEEEF2E01382128288EE47
:1016D00093E0A0E0B0E084839583A683B78321E202
:1016E00031E031832083EAEFF2E0138212828483B7
:1016F0009583A683B78383E391E09183808385EC10
:1017000090E09587848784EC90E09787868780ECCB
:1017100090E0918B808B81EC90E0938B828B82ECBC
:1017200090E0958B848B86EC90E0978B868B118E66
:10173000128E138E148EE2EBF3E023E0208381E01F
:101740008183228397E0A92EA38292E094838583EC
:101750009683A782808781878287A38684873AEFD2
:10176000732E7586268742E1B42EB786208B53E10F
:10177000C52EC18A928BB38A948BC58A868BB78A11
:10178000808FC18E828F6BEF662E638E248F64E014
:10179000658F268F278F90A361A392A323A384A391
:1017A00065A386A327A380A77CEF572E51A622A767
:1017B000ADE0DA2ED3A624A7B1E1EB2EE5A696A7DD
:1017C000D7A690ABE1AA82ABD3AA84ABE5AA86AB3D
:1017D000CDEF4C2E47AA20AFD6E0FD2EF1AE22AFC2
:1017E00093AF94AFF5AE96AF97AF8093F203F092BC
:1017F000F3038093F4039093F5038093F6034FEF84
:101800004093F7032093F8033AE03093F9032093D1
:10181000FA030FE00093FB039093FC033093FD0366
:101820009093FE030093FF03809300043093010420
:1018300080930204009303048093040440930504FE
:101840002093060454E1509307042093080410E108
:101850001093090490930A0450930B0490930C0482
:1018600010930D0480930E0450930F048093100482
:1018700010931104809312044093130420931404D2
:10188000D5E0D093150420931604C8E0C093170444
:1018900090931804D093190490931A04C0931B04D6
:1018A00080931C04D0931D0480931E04C0931F04D6
:1018B000809320044093210420932204BCE0B09341
:1018C000230420932404ABE0A093250490932604E2
:1018D000B093270490932804A093290480932A04AA
:1018E000B0932B0480932C04A0932D0480932E049A
:1018F00079E1872E80922F0420933004E9E09E2E18
:1019000090923104209332047EE0709333049093DC
:1019100034043093350490933604709337048093E5
:1019200038049092390480933A0470933B04909366
:101930003C0480923D04E7E9F3E0118210821282B8
:101940000F2EFDE22F2E33243394F02D3482238288
:1019500015821682EEE3F4E0208381832283A38242
:10196000948385839683A782808781878287A386D5
:10197000848775862687B786208BC18A928BB38A27
:10198000948BC58A868BB78A808FC18E828F638E37
:10199000248F658F268F278F90A361A392A323A303
:1019A00084A365A386A327A380A751A622A7D3A6B5
:1019B00024A7E5A696A7D7A690ABE1AA82ABD3AAA7
:1019C00084ABE5AA86AB47AA20AFF1AE22AF93AFB6
:1019D00094AFF5AE96AF97AF80937E04F0927F04FC
:1019E00080938004909381048093820440938304C5
:1019F0002093840430938504209386040093870405
:101A0000909388043093890490938A0400938B0404
:101A100080938C0430938D0480938E0400938F0404
:101A200080939004409391042093920450939304E4
:101A300020939404109395049093960450939704E4
:101A4000909398041093990480939A0450939B0464
:101A500080939C0410939D0480939E0440939F0464
:101A60002093A004D093A1042093A204C093A304C4
:101A70009093A404D093A5049093A604C093A704C4
:101A80008093A804D093A9048093AA04C093AB04C4
:101A90008093AC044093AD042093AE04B093AF04A4
:101AA0002093B004A093B1049093B204B093B30414
:101AB0009093B404A093B5048093B604B093B70494
:101AC0008093B804A093B9048093BA048092BB04B5
:101AD0002093BC049092BD042093BE047093BF0475
:101AE0009093C0043093C1049093C2047093C304D4
:101AF0008093C4049092C5048093C6047093C70475
:101B00009093C8048092C904EAECF4E020838183B6
:101B10002283A382948385839683A782808781878B
:101B20008287A386848775862687B786208BC18A9D
:101B3000928BB38A948BC58A868BB78A808FC18E2D
:101B4000828F638E248F658F268F278F90A361A34A
:101B500092A323A384A365A386A327A380A751A64A
:101B600022A7D3A624A7E5A696A7D7A690ABE1AA5D
:101B700082ABD3AA84ABE5AA86AB47AA20AFF1AE6D
:101B800022AF93AF94AFF5AE96AF97AF80930A05AF
:101B9000F0920B0580930C0590930D0580930E0534
:101BA00040930F05209310053093110520931205E3
:101BB0000093130590931405309315059093160523
:101BC00000931705809318053093190580931A0523
:101BD00000931B0580931C0540931D0520931E0553
:101BE00050931F0520932005109321059093220503
:101BF0005093230590932405109325058093260583
:101C000050932705809328051093290580932A0572
:101C100040932B0520932C05D0932D0520932E0562
:101C2000C0932F0590933005D093310590933205E2
:101C3000C093330580933405D093350580933605E2
:101C4000C0933705809338054093390520933A05B2
:101C5000B0933B0520933C05A0933D0590933E0532
:101C6000B0933F0590934005A093410580934205B2
:101C7000B093430580934405A093450580934605A2
:101C800080924705209348059092490520934A0584
:101C900070934B0590934C0530934D0590934E05F2
:101CA00070934F0580935005909251058093520593
:101CB000709353059093540580925505E6E5F5E041
:101CC000138212820F2EF5E42F2EF1E03F2EF02D1D
:101CD0003182208211860F2EFEE33F2EF02D3482BA
:101CE00052876387E2E6F5E0208381832283A38223
:101CF000948385839683A782808781878287A38642
:101D0000848775862687B786208BC18A928BB38A93
:101D1000948BC58A868BB78A808FC18E828F638EA3
:101D2000248F658F268F278F90A361A392A323A36F
:101D300084A365A386A327A380A751A622A7D3A621
:101D400024A7E5A696A7D7A690ABE1AA82ABD3AA13
:101D500084ABE5AA86AB47AA20AFF1AE22AF93AF22
:101D600094AFF5AE96AF97AF8093A205F092A3051E
:101D70008093A4059093A5058093A6054093A7059D
:101D80002093A8053093A9052093AA050093AB05DD
:101D90009093AC053093AD059093AE050093AF05DD
:101DA0008093B0053093B1058093B2050093B305DD
:101DB0008093B4054093B5052093B6055093B705BD
:101DC0002093B8051093B9059093BA055093BB05BD
:101DD0009093BC051093BD058093BE055093BF053D
:101DE0008093C0051093C1058093C2054093C3053D
:101DF0002093C405D093C5052093C605C093C7059D
:101E00009093C805D093C9059093CA05C093CB059C
:101E10008093CC05D093CD058093CE05C093CF059C
:101E20008093D0054093D1052093D205B093D3057C
:101E30002093D405A093D5059093D605B093D705EC
:101E40009093D805A093D9058093DA05B093DB056C
:101E50008093DC05A093DD058093DE058092DF058D
:101E60002093E0059092E1052093E2057093E3054D
:101E70009093E4053093E5059093E6057093E705AC
:101E80008093E8059092E9058093EA057093EB054D
:101E90009093EC058092ED05DF91CF911F910F910A
:101EA000FF90EF90DF90CF90BF90AF909F908F907A
:101EB0007F906F905F904F903F902F900895CF93B9
:101EC000DF93CDB7DEB7C352D1400FB6F894DEBF73
:101ED0000FBECDBF789484B5826084BD84B5816027
:101EE00084BD85B5826085BD85B5816085BD8091E5
:101EF0006E00816080936E0010928100809181005D
:101F00008260809381008091810081608093810054
:101F1000809180008160809380008091B100846016
:101F20008093B1008091B00081608093B000809177
:101F30007A00846080937A0080917A008260809336
:101F40007A0080917A00816080937A0080917A0093
:101F5000806880937A001092C100E0910A03F091AA
:101F60000B0382E08083E0910603F0910703108267
:101F7000E0910803F09109038FEC80831092120323
:101F8000E0910E03F0910F0386E08083E0910C0353
:101F9000F0910D03808180618083E0910C03F091CA
:101FA0000D03808188608083E0910C03F0910D0324
:101FB000808180688083E0910C03F0910D03808123
:101FC0008F7D8083CE0101960E9430050E94990486
:101FD00010E000E020E040E06DE271E082E090E09F
:101FE0000E942A0888EA91E00E940F08F12CE12C57
:101FF000912C812C5DE2A52EBB24B39462E0C62E09
:10200000D12C712C66246394711081C0CE0101968D
:102010000E948106CE0101960E94DC0589819A8189
:10202000899F802D11248B3F19F188F48A3F71F725
:1020300087EB91E00E940F087724739419821A822B
:1020400066E970E080E090E00E942702DDCF8C3FDF
:1020500009F446C08D3FD1F685EC91E00E940F084F
:10206000B3E0EB16F10454F7EFEFEE1AFE0A43C0AB
:102070008DEB91E00E940F08E114F10491F42FEF31
:10208000C21AD20A35E0C316D10419F4CC24C39481
:10209000D12C8701292D482DB501C6010E942A089F
:1020A000CDCF41E0E416F10451F45DE2A51651E014
:1020B000B50689F03DE2A32EBB24B394EACF82E0BB
:1020C000E816F10411F48624E4CF93E0E916F10454
:1020D00001F79624DECF25EFA22EBB24B394D9CFEF
:1020E00082EC91E00E940F08E114F10409F4A6CFFC
:1020F000A1E0EA1AF108B7018AEF92E00E94D50741
:102100006DE471E08AEF92E00E947A07C2CF1092EC
:10211000980310929703C0929903B0929B03A092E8
:102120009A0380929C0390929D038BE1E7E9F3E090
:10213000DE01119601900D928A95E1F71D8E1C8E9D
:1021400019A218A2CE0182969E0126513F4FC35E6E
:10215000DE4F39832883CD51D1403AE0DC011D9216
:102160001D9225E0EEE0F1E001900D922A95E1F755
:10217000FC013796DF01232F1D922A95E9F7DC0138
:1021800052961C921E92519753961C924496C35E8F
:10219000DE4FE881F981CD51D140E817F907F1F61A
:1021A0009E012F5F3F4F690110E000E0AE014950F2
:1021B0005F4F3A014A0152E0850E911C55245A9412
:1021C000809199038017110609F00CF4EDC00F5FA0
:1021D0001F4FCF5EDE4F19821882C151D140CD5EB4
:1021E000DE4F19821882C351D140CB5EDE4F198277
:1021F0001882C551D1404AE0B301C8010E940714BA
:10220000F30101900020E9F73197AF014619570912
:10221000B301CE018F5E9E4F0E946509C55FDE4F00
:1022200019821882CB50D140C35FDE4F19821882C9
:10223000CD50D140C15FDE4F19821882CF50D140BE
:1022400048E050E06AEC71E0CE01855F9E4F0E944D
:102250006509CB5EDE4F88819981C551D140CF5E43
:10226000DE4FA880B980C151D140C15FDE4FE88008
:10227000F980CF50D140E80EF91EA114B10409F441
:1022800076C0892B01F1B701CE01855F9E4F0E9478
:102290003D09882309F46BC0C55FDE4F2881398171
:1022A000CB50D140C15FDE4F88819981CF50D14062
:1022B000B501820F931F0E948616C15FDE4FF9821F
:1022C000E882CF50D140C95EDE4F19821882C751D3
:1022D000D140C75EDE4F19821882C951D140C55E18
:1022E000DE4F19821882CB51D140C55FDE4F688125
:1022F0007981CB50D1406115710559F0C15FDE4F36
:1023000048815981CF50D140CE01895E9E4F0E94B5
:102310006509C95EDE4F68817981C751D140C80126
:102320000197D3018D939C93C4010E9486168C81E2
:102330009D81F301928B818B538A84E1D601919622
:1023400001900D928A95E1F7CE01895E9E4F0E9421
:102350003509CE01855F9E4F0E943509CE018F5E03
:102360009E4F0E943509F4E1CF0ED11C29CFC55FE5
:10237000DE4F88819981CB50D140009711F00E94A7
:102380003715C55FDE4F19821882CB50D140C15F2F
:10239000DE4F19821882CF50D140C35FDE4F1982C1
:1023A0001882CD50D1408FCF8AA19BA19F8F8E8F55
:1023B00019A218A2C651DF4F1882CA5ED040C5517B
:1023C000DF4F1882CB5ED0406E012CEEC20ED11CC6
:1023D000C6010E9430050E94990483ED91E00E949D
:1023E0000F08D3011D921D921D0161EE71E0CD0118
:1023F0000E94861680919A0390919B03F301928B21
:10240000818B83E0838B2DB73EB7245131090FB602
:10241000F8943EBF0FBE2DBFADB7BEB7119684E195
:1024200001900D928A95E1F781E090E00E94AA0860
:102430000FB6F894DEBF0FBECDBF8C8D9D8D039778
:10244000E1F38E010F5F1F4FEE24E394F12C94E132
:10245000592E570151E0A51AB1088B818A151B042A
:1024600009F00CF4CEC1E3E0D801D496EC93D497F4
:1024700091968D919C919F8F8E8F98012D5D3F4FEE
:10248000C05EDE4F39832883C052D1405A9C400140
:102490005B9C900C112441E050E04C0F5D1F840EBA
:1024A000951E51E2850E911C5E9CC0015F9C900DB3
:1024B0001124A1E0B0E0AC0FBD1F8A0F9B1FFC01EF
:1024C000B196CE5DDE4FF983E883C252D140D80188
:1024D000D4968C918F3F09F48EC18C8D9D8D813067
:1024E0009105E9F3C05EDE4F68817981C052D14029
:1024F0008AEF92E00E9422086BEE71E08AEF92E090
:102500000E942208F80144A950E070E060E02AE04F
:102510008AEF92E00E9489076DE471E08AEF92E011
:102520000E947A07C6010E948106C6010E94DC054E
:10253000C451DF4FF881CC5ED040C15EDE4FF883DE
:10254000CF51D140C351DF4F4880CD5ED040C45100
:10255000DF4F1882CC5ED040C351DF4F1882CD5E72
:10256000D040F11102C04420E9F2C551DF4F48824A
:10257000CB5ED040C15EDE4FF881CF51D140C65115
:10258000DF4FF883CA5ED040C05EDE4F688179813C
:10259000C052D1408AEF92E00E9422086CEF71E0B5
:1025A0008AEF92E00E942208D801D2964D915C9168
:1025B00070E060E02AE08AEF92E00E94890760E024
:1025C00072E08AEF92E00E942208C551DF4F6881D5
:1025D000CB5ED040C651DF4F8881CA5ED040689F35
:1025E000B00111248AEF92E00E94D50783E092E0C7
:1025F0000E940F08C15EDE4FB881CF51D1404B9E83
:10260000C0011124F80122A933A92817390718F5A8
:1026100085E092E00E940F08D801D4961C9288A110
:1026200099A1EDB7FEB774970FB6F894FEBF0FBE31
:10263000EDBFADB7BEB71196F401252D01900D92F7
:102640002A95E1F701960E94AA080FB6F894DEBF1A
:102650000FBECDBF41C08217930709F0A5C08EE021
:1026600092E00E940F0843E050E05D8F4C8FD8014C
:10267000D4961C920E94860484E1F801B196D3019D
:1026800001900D928A95E1F760E080E00E9452048B
:1026900060915C056E7F60935C05686070E086E524
:1026A00095E00E94660362E082E00E94520467E1C6
:1026B00072E086E595E00E94220863E082E00E94D5
:1026C0005204B10186E595E00E94220860E177E2BC
:1026D00080E090E00E942702D801D4968C9181116D
:1026E00031C08B818150990BA816B90609F46CC0D2
:1026F000C701589EF001599EF00D112421E030E0F1
:102700002C0F3D1FE20FF31F33E034AB88A199A1DA
:102710004DB75EB7445151090FB6F8945EBF0FBE76
:102720004DBFADB7BEB71196F401252D01900D92A6
:102730002A95E1F701960E94AA080FB6F894DEBF29
:102740000FBECDBFD801D4968C91D497811125C0EE
:102750008FEFD4968C9388A199A101962B8121505B
:10276000330BA216B30699F5EDB7FEB774970FB603
:10277000F894FEBF0FBEEDBFADB7BEB7119624E112
:10278000FE01B29601900D922A95E1F70E94AA08E7
:102790000FB6F894DEBF0FBECDBF6DE471E08AEFD7
:1027A00092E00E947A0793CE281B390B33AB22AB01
:1027B00086E292E00E940F08D801D4968C91D497BB
:1027C0008150D4968C932BCF90E080E092CF4DB780
:1027D0005EB7445151090FB6F8945EBF0FBE4DBFAE
:1027E000ADB7BEB71196CE5DDE4FE881F981C2521A
:1027F000D140252DC7CF9FEFE91AF90A0C5E1F4F74
:1028000028CE88A199A1019699A388A316CEBB27AB
:102810004A3031F4992322F4BDE2909581959F4F7F
:102820000C941314BB27FB015527AA27880F991F67
:10283000AA1FA41710F0A41B83955051B9F7A05DEF
:10284000AA3308F0A95DA193009779F7B111B1936C
:102850001192CB010C942C14DC01FC01672F7191B7
:102860007723E1F7329704C07C916D937083629176
:10287000AE17BF07C8F308952F923F924F925F9211
:102880006F927F928F929F92AF92BF92CF92DF9280
:10289000EF92FF920F931F93CF93DF93CDB7DEB7E5
:1028A000CA1BDB0B0FB6F894DEBF0FBECDBF099479
:1028B0002A88398848885F846E847D848C849B84D0
:1028C000AA84B984C884DF80EE80FD800C811B81DE
:1028D000AA81B981CE0FD11D0FB6F894DEBF0FBE0D
:1028E000CDBFED010895A1E21A2EAA1BBB1BFD016D
:1028F0000DC0AA1FBB1FEE1FFF1FA217B307E407DF
:10290000F50720F0A21BB30BE40BF50B661F771F36
:10291000881F991F1A9469F7609570958095909516
:102920009B01AC01BD01CF010895EE0FFF1F059083
:10293000F491E02D09940F931F93CF93DF9382308E
:10294000910510F482E090E0E091F005F091F1053E
:1029500030E020E0B0E0A0E0309799F42115310597
:1029600009F44AC0281B390B24303105D8F58A8177
:102970009B816115710589F1FB0193838283FE01BF
:1029800011C0408151810281138148175907E0F03D
:102990004817590799F4109761F012960C93129703
:1029A00013961C933296CF01DF91CF911F910F9117
:1029B00008950093F0051093F105F4CF211531052A
:1029C00051F04217530738F0A901DB019A01BD010C
:1029D000DF01F801C1CFEF01F9CF9093F1058093AA
:1029E000F005CDCFFE01E20FF31F819391932250AA
:1029F000310939832883D7CF2091EE053091EF0537
:102A0000232B41F420910201309103013093EF0513
:102A10002093EE052091000130910101211531052F
:102A200041F42DB73EB74091040150910501241B9C
:102A3000350BE091EE05F091EF05E217F307A0F4F6
:102A40002E1B3F0B2817390778F0AC014E5F5F4F04
:102A50002417350748F04E0F5F1F5093EF05409342
:102A6000EE05819391939FCFF0E0E0E09CCFCF9370
:102A7000DF930097E9F0FC01329713821282A09154
:102A8000F005B091F105ED0130E020E01097A1F4E0
:102A900020813181820F931F2091EE053091EF0547
:102AA0002817390709F061C0F093EF05E093EE05B0
:102AB000DF91CF910895EA01CE17DF07E8F54A814B
:102AC0005B819E0141155105B1F7E901FB83EA8362
:102AD00049915991C40FD51FEC17FD0761F480810E
:102AE00091810296840F951FE901998388838281E1
:102AF00093819B838A83F0E0E0E012968D919C9114
:102B000013970097B9F52D913C911197CD0102963D
:102B1000820F931F2091EE053091EF05281739079A
:102B200039F6309751F51092F1051092F005B093F7
:102B3000EF05A093EE05BCCFD383C28340815181C2
:102B4000840F951FC817D90761F44E5F5F4F8881C6
:102B50009981480F591F518340838A819B819383B8
:102B600082832115310509F0B0CFF093F105E09390
:102B7000F0059ECFFD01DC01C0CF13821282D7CFBA
:102B8000B0E0A0E0E6ECF5E10C943E148C01009777
:102B900051F4CB010E949B148C01C801CDB7DEB764
:102BA000E0E10C945A14FC01E60FF71F9C0122503F
:102BB0003109E217F30708F49DC0D901CD91DC91EA
:102BC0001197C617D70798F0C530D10530F3CE015D
:102BD00004978617970708F3C61BD70B2297C19354
:102BE000D1936D937C93CF010E943715D6CF5B01B3
:102BF000AC1ABD0A4C018C0E9D1EA091F005B0913F
:102C0000F105512C412CF12CE12C109731F58091DC
:102C1000EE059091EF058815990509F05CC0461600
:102C2000570608F058C0809100019091010100976B
:102C300041F48DB79EB74091040150910501841B6A
:102C4000950BE817F90708F055C0F093EF05E093EE
:102C5000EE05F90171836083A0CF8D919C9111974E
:102C600012966C90129713967C901397A815B9053D
:102C700059F56C0142E0C40ED11CCA14DB0420F1EA
:102C8000AC014A195B09DA011296159780F062824D
:102C9000738251834083D9016D937C93E114F104D5
:102CA00071F0D7011396FC93EE93129776CF22968C
:102CB0008C0F9D1FF90191838083F301EFCFF09377
:102CC000F105E093F00569CF4816590608F42C0188
:102CD0007D01D3019ACFCB010E949B147C01009708
:102CE00049F0AE01B8010E947D16C8010E94371557
:102CF000870153CF10E000E050CFFB01DC0102C0A0
:102D000001900D9241505040D8F70895FB01DC012D
:0E2D100001900D920020E1F70895F894FFCF96
:102D1E000000F205800000004000140054006E69AF
:102D2E00636B0000000000000000000000000000C7
:102D3E00000C01DF000E05B500D800C500B600007E
:102D4E00000000F902590286024603B7029502A955
:102D5E000200000000060559020E050D050D0A00C1
:102D6E005B20200020205D20506C617965727320FD
:102D7E00005B2000205D20506F696E747320005838
:102D8E000020205D20446F75626C6520696E200006
:102D9E0020205D20446F75626C65206F7574200075
:102DAE00526F756E643A2000202020005B20582060
:102DBE005D005B2020205D0044617274732073748B
:102DCE0061727465642E0053746172740053746F73
:102DDE007000557000446F776E00506C61796572AB
:102DEE002023005374776F727A6F6E6F206772654F
:102DFE0000506C6179657220233100206174746516
:102E0E006D707473206C6566743A2000202D20005E
:102E1E00282D00290009546F206D756368004669DE
:102E2E006E69736865640057796772797761206798
:0A2E3E007261637A3A004F4B000006
:00000001FF
