:100000000C9462000C948A000C948A000C948A0070
:100010000C948A000C948A000C948A000C948A0038
:100020000C948A000C948A000C948A000C948A0028
:100030000C948A000C948A000C948A000C948A0018
:100040000C94720A0C948A000C94E20A0C94BC0A78
:100050000C948A000C948A000C948A000C948A00F8
:100060000C9453090C948A0000000000240027001F
:100070002A0000000000250028002B0000000000DE
:1000800023002600290004040404040404040202DA
:100090000202020203030303030301020408102007
:1000A0004080010204081020010204081020000012
:1000B0000008000201000003040700000000000027
:1000C0000000140B11241FBECFEFD8E0DEBFCDBF60
:1000D00025E0A6E1B2E001C01D92AE3DB207E1F716
:1000E00012E0A0E0B1E0E4E2FCE202C005900D9273
:1000F000A631B107D9F710E0C2E6D0E004C02197DD
:10010000FE010E941814C136D107C9F70E94220FC0
:100110000C9410160C940000089508952091880204
:10012000260F3327331F21323105ECF42091AC0226
:10013000FC0190E080E0243069F082E00895A09115
:1001400088022191AC0148595D4FA40FB52FB11D14
:100150002C930196861798F380918802680F60931C
:10016000880280E0089581E008950895E091D90221
:100170008091D802E81730F4F0E0EE5BFD4F80810B
:1001800090E008958FEF9FEF08959091D9028091AC
:10019000D8022FEF3FEF981748F4E92FF0E0EE5B1D
:1001A000FD4F208130E09F5F9093D902C9010895EF
:1001B0008091D8029091D902891B990B0895CF9212
:1001C000DF92EF92FF920F931F93CF93DF937C0107
:1001D000CB018A0120914102222389F0EB016B01BE
:1001E000C40ED51ECC15DD0569F06991D701ED91DE
:1001F000FC910190F081E02DC7010995F3CF642FA8
:100200000E948E00C801DF91CF911F910F91FF9046
:10021000EF90DF90CF900895CF93DF931F92CDB7EB
:10022000DEB76983209141022223F9F02091D602A2
:10023000203258F021E030E0FC013383228390E04B
:1002400080E00F90DF91CF9108958091D702E82F41
:10025000F0E0EF5DFD4F998190838F5F8093D7022F
:100260008093D60281E090E0ECCF61E0CE01019670
:100270000E948E00F7CF833081F028F4813099F00E
:100280008230A9F008958730A9F08830C9F0843011
:10029000B1F4809180008F7D03C0809180008F77C2
:1002A00080938000089584B58F7784BD089584B5C8
:1002B0008F7DFBCF8091B0008F778093B000089541
:1002C0008091B0008F7DF9CF1F93CF93DF93282FBC
:1002D00030E0F901E255FF4F8491F901E656FF4FF6
:1002E000D491F901EA57FF4FC491CC23A9F0162FFE
:1002F00081110E943B01EC2FF0E0EE0FFF1FEE5842
:10030000FF4FA591B4918FB7F894EC91111108C0EB
:10031000D095DE23DC938FBFDF91CF911F9108959D
:10032000DE2BF8CF1092AC0281E08093AE021092E7
:10033000AD0261E082E10E94640161E083E10E941C
:100340006401E9EBF0E080818E7F808380818D7F86
:10035000808388E48093B80085E48093BC0008958E
:10036000CF93DF9391E0909367028823B9F0C09117
:10037000B800D091BA008091BC008A7B8093BC0009
:1003800060E082E10E94640160E083E10E94640118
:100390000E949201D093BA00C093B800DF91CF9130
:1003A0000895CF93DF9390E0FC01E656FF4F249130
:1003B0008A579F4FFC0184918823D1F090E0880FE9
:1003C000991FFC01E859FF4FA591B491FC01EE582B
:1003D000FF4FC591D49161110EC09FB7F8948C91D5
:1003E000E22FE0958E238C932881E223E8839FBF40
:1003F000DF91CF9108958FB7F894EC91E22BEC93B5
:100400008FBFF6CF3FB7F89480911D0290911E02E6
:10041000A0911F02B091200226B5A89B05C02F3FD6
:1004200019F00196A11DB11D3FBFBA2FA92F982F1A
:100430008827BC01CD01620F711D811D911D42E015
:10044000660F771F881F991F4A95D1F70895AF92BD
:10045000BF92CF92DF92EF92FF920F931F93CF93B1
:10046000DF936C017B018B01040F151FEB015E0113
:10047000AE18BF08C017D10759F06991D601ED91A8
:10048000FC910190F081E02DC6010995892B79F747
:10049000C501DF91CF911F910F91FF90EF90DF90F9
:1004A000CF90BF90AF900895FC01538D448D252FC0
:1004B00030E0842F90E0821B930B541710F0CF96FE
:1004C000089501970895FC01918D828D981761F030
:1004D000A28DAE0FBF2FB11D5D968C91928D9F5F47
:1004E0009F73928F90E008958FEF9FEF0895FC0126
:1004F000918D828D981731F0828DE80FF11D858DD9
:1005000090E008958FEF9FEF0895FC01918D228D6B
:10051000892F90E0805C9F4F821B91098F739927F0
:10052000089586EE92E00E94850221E0892B09F46D
:1005300020E0822F089580E090E0892B29F00E942E
:10054000910281110C9400000895FC01A48DA80F64
:10055000B92FB11DA35ABF4F2C91848D90E0019605
:100560008F739927848FA689B7892C93A089B18925
:100570008C91837080648C93938D848D981306C0C6
:100580000288F389E02D80818F7D80830895EF922A
:10059000FF920F931F93CF93DF93EC0181E0888F3D
:1005A0009B8D8C8D98131AC0E889F989808185FF0D
:1005B00015C09FB7F894EE89FF896083E889F989AF
:1005C00080818370806480839FBF81E090E0DF91B1
:1005D000CF911F910F91FF90EF900895F62E0B8D04
:1005E00010E00F5F1F4F0F731127E02E8C8D8E11BF
:1005F0000CC00FB607FCFACFE889F989808185FF26
:10060000F5CFCE010E94A502F1CFEB8DEC0FFD2FAF
:10061000F11DE35AFF4FF0829FB7F8940B8FEA89E0
:10062000FB8980818062CFCFCF93DF93EC01888DEF
:100630008823B9F0AA89BB89E889F9898C9185FD5D
:1006400003C0808186FD0DC00FB607FCF7CF8C91EB
:1006500085FFF2CF808185FFEDCFCE010E94A502FC
:10066000E9CFDF91CF910895CF92DF92EF92FF9281
:100670000F931F93CF93DF93D62F672FFC01C48175
:1006800081E080934102C09317021092D70210922A
:10069000D6028AED92E00E940C016D2F8AED92E065
:1006A0000E940C01D091D602D13208F092C00E9473
:1006B00002026B017C018091AC02811165C082E075
:1006C0008093AC0281E08093AE028FEF8093AB0207
:1006D0001092D002D093CF02A1E2B2E0EFEAF2E0B2
:1006E00080E0D81385C01092D1028091D102CC0F46
:1006F000C82BC093D1028091AD02813009F07CC03B
:100700001092AD020E9402026B017C018091D10225
:100710008093BB008091630290916402A091650276
:10072000B0916602892B8A2B8B2B99F00E940202D2
:10073000009163021091640220916502309166027B
:100740006C197D098E099F090617170728073907B5
:10075000E0F18091BC0083FDD9CF85EC8093BC0093
:100760000E9402026B017C018091AC02823009F48C
:1007700045C08091AB028F3F61F18091AB02803226
:1007800041F18091AB0225C0809163029091640297
:10079000A0916502B0916602892B8A2B8B2B09F4FC
:1007A0008ACF0E940202009163021091640220919C
:1007B0006502309166026C197D098E099F09061742
:1007C00017072807390708F076CF809162020E9448
:1007D000B0011092D7021092D60210924102DF911E
:1007E000CF911F910F91FF90EF90DF90CF900895E0
:1007F0009D9191938F5F75CF85EEB0CF809163020D
:1008000090916402A0916502B0916602892B8A2BB7
:100810008B2B09F4A9CF0E94020200916302109170
:10082000640220916502309166026C197D098E097F
:100830009F09061717072807390708F095CFC5CF76
:10084000CF93DF93CDB7DEB728970FB6F894DEBF0E
:100850000FBECDBF98E0E6E0F1E0DE011196019019
:100860000D929A95E1F790914A05961710F46FEF63
:10087000690F70E0660F771F21E030E02C0F3D1FFD
:10088000620F731FFB016081860F8068682F70E024
:1008900082E495E028960FB6F894DEBF0FBECDBF78
:1008A000DF91CF910C9434031092D9021092D802A8
:1008B0001092D7021092D6020E9492018CE890E02A
:1008C0009093D5028093D4028DE890E09093D30268
:1008D0008093D20280E18093470580914D0582305C
:1008E00018F098E19093470580934A058BE39DE0CB
:1008F0000197F1F760914705606270E082E495E04E
:100900000E9434038BE496E40197F1F76091470568
:10091000606270E082E495E00E94340383E592E037
:100920000197F1F760914705606270E082E495E01D
:100930000E94340360914705606270E082E495E0B4
:100940000E94340384E0809348056CE070E082E408
:1009500095E00E94340361E070E082E495E00E943B
:1009600034038BE39FE10197F1F780914B058823D6
:1009700021F060E080E00E94200482E0809349053D
:1009800066E070E082E495E00E94340362E070E08B
:1009900082E495E00E9434038BE39FE10197F1F735
:1009A000089570E070640E94340381E090E008953F
:1009B000089590E080E00895873F99F040F48F3DDE
:1009C000A1F08F3E81F08F3B91F480E008958D3F40
:1009D00031F08E3F71F08B3F51F484E0089585E053
:1009E000089583E0089582E0089581E008958FEFEF
:1009F000089586E00895FC01108211828CE291E056
:100A0000A0E0B0E086839783A087B18761E08AE0A9
:100A10000E94D10161E08BE00E94D10161E089E098
:100A20000E94D10161E087E00E94D10161E084E091
:100A30000E94D10161E086E00E94D10160E085E082
:100A40000E94D10161E082E00E94D10161E083E077
:100A50000E94D10160E082E00E94640160E083E0D6
:100A60000C9464010F931F93CF93DF93082F162FDD
:100A7000D42FC8E06D2F6170802F0E946401D6953D
:100A800061E0812F0E94640160E0812F0E94640177
:100A9000C15081F7DF91CF911F910F9108958F92EF
:100AA0009F92AF92BF92CF92DF92EF92FF920F93FD
:100AB0001F93CF93DF93962E10E000E0B12CC82F48
:100AC000D0E0CE0182559F4F7C01FE01E656FF4FDC
:100AD0006F01CA57DF4F61E0892D0E946401F70161
:100AE0008491F601A490FE018490882071F1811117
:100AF0000E943B01E82DF0E0EE0FFF1FE458FF4F8E
:100B0000A591B4918C91A82231E009F430E0832FB3
:100B1000002E01C0880F0A94EAF7B82A60E0892DF8
:100B20000E9464010F5F1F4F08301105A1F68B2D45
:100B3000DF91CF911F910F91FF90EF90DF90CF90B9
:100B4000BF90AF909F908F90089580E0E1CF4F923B
:100B50005F926F927F928F929F92AF92BF92DF923D
:100B6000EF92FF920F931F93CF93DF937C01C2E02C
:100B7000D0E00FE010E0DC2E61E08C2F0E946401D9
:100B800060E087E00E946401C8010197F1F761E02D
:100B900087E00E946401C8010197F1F761E086E0F7
:100BA0000E94640160E084E00E94640166E085E0E8
:100BB0000E944F05B82E61E084E00E9464018B2DF5
:100BC0000E94DC04873008F04EC029E030E0C230DB
:100BD000D10511F428E030E097E0929FF001939F57
:100BE000F00D1124E80FF11DEE0FFF1FE25BFA4F2D
:100BF000808191812FB7F8944091190250911A0287
:100C000060911B0270911C022FBFD70112968D902C
:100C10009D90AD90BC9015972A013B01481859084A
:100C20006A087B0816968D909D90AD90BC901997A0
:100C3000481459046A047B04B0F0989F902D112445
:100C40008C9111962C911197829F802D11249817C9
:100C500051F080818C93818111968C93F7014283AE
:100C600053836483758360E08D2D0E946401239714
:100C700081F4DF91CF911F910F91FF90EF90DF9062
:100C8000BF90AF909F908F907F906F905F904F90AC
:100C90000895C3E0D0E06FCF4F925F926F927F9242
:100CA0008F929F92AF92BF92CF92DF92EF92FF927C
:100CB0000F931F93CF93DF93EC0110E000E0812CA2
:100CC000912C540183942FE0E22EF12CD090160247
:100CD00024013501002E04C0440C551C661C771CF1
:100CE0000A94D2F7CD2CC42860E08AE00E94640107
:100CF0004C2D69E08BE00E94320561E08AE00E94A1
:100D0000640160E087E00E946401C7010197F1F788
:100D100061E087E00E946401C7010197F1F7409408
:100D20004D204092160261E086E00E94640160E07E
:100D300084E00E94640166E085E00E944F05D82EA1
:100D400061E084E00E9464018D2D0E94DC04873004
:100D500008F03EC097E0909FF001919FF00D1124A4
:100D6000E80FF11DEE0FFF1FE25BFA4FD0803181DB
:100D70002FB7F8944091190250911A0260911B020A
:100D800070911C022FBF4A805B806C807D80DB01EC
:100D9000CA0184199509A609B7094E805F80688445
:100DA000798484159505A605B70590F0D39E902DFE
:100DB000112488812981829F802D1124981741F068
:100DC00080818883818189834A835B836C837D836F
:100DD00060E08AE00E9464014091160269E08BE0C5
:100DE0000E94320561E08AE00E9464010F5F1F4F9C
:100DF0000A30110509F06ACFDF91CF911F910F9151
:100E0000FF90EF90DF90CF90BF90AF909F908F902A
:100E10007F906F905F904F90089585ED8093BC0018
:100E20008091630290916402A0916502B091660284
:100E30000796A11DB11D23E0B695A79597958795B7
:100E40002A95D1F72091BC0024FD03C01092AC027A
:100E5000089540916302509164026091650270911F
:100E60006602452B462B472B69F30097A105B10578
:100E700041F025E32A95F1F700000197A109B10996
:100E8000E1CF809162020C94B001FB01019000203F
:100E9000E9F73197AF01461B570BDC01ED91FC914F
:100EA0000280F381E02D09948F929F92AF92BF92BE
:100EB000EF92FF920F931F93CF93DF93CDB7DEB7DF
:100EC000A1970FB6F894DEBF0FBECDBF7C01FA012B
:100ED000CB0119A2223008F42AE08E010F5D1F4FCA
:100EE000822E912CB12CA12CBF01A50194010E944E
:100EF000F613F901CA016A300CF5605DD8016E93F2
:100F00008D01232B242B252B79F790E080E010977F
:100F100021F0BD01C7010E944507A1960FB6F894C4
:100F2000DEBF0FBECDBFDF91CF911F910F91FF901C
:100F3000EF90BF90AF909F908F900895695CDECF47
:100F4000CF92DF92EF92FF920F931F93CF93DF9395
:100F5000EC016A017B01E881F9810190F081E02DCB
:100F60006DE209958C0144275527BA014C195D099A
:100F70006E097F092AE0CE010E945407800F911F5D
:100F8000DF91CF911F910F91FF90EF90DF90CF9065
:100F90000895AB01770F660B770B77FD0C94A007D4
:100FA0002AE00C945407CF93DF93AC01092E000C78
:100FB000660B770B97FF10C086EE92E00E94A007A9
:100FC000EC016DE471E086EE92E00E9445078C0F23
:100FD0009D1FDF91CF9108952AE086EE92E00E9456
:100FE0005407EECFCF93DF93BC0186EE92E00E94D0
:100FF0004507EC016DE471E086EE92E00E94450742
:101000008C0F9D1FDF91CF9108956115710511F02F
:101010000C94450790E080E00895CF92DF92EF9224
:10102000FF920F93CF93DF936C017B01D42FC22FDC
:1010300060E080E00E94200460914805862F816076
:1010400080934805696070E082E495E00E94340373
:1010500060E571E082E495E00E940508B60182E453
:1010600095E00E94C90764E571E082E495E00E9482
:10107000050861E080E00E94200461E671E082E4FE
:1010800095E00E940508B70182E495E00E94C90737
:1010900064E671E082E495E00E94050862E080E089
:1010A0000E94200460E571E082E495E00E9405085A
:1010B0006FE671E0D11102C062E571E082E495E073
:1010C0000E94050861E771E082E495E00E9405084E
:1010D00063E080E00E94200460E571E082E495E036
:1010E0000E9405086FE671E0C11102C062E571E07F
:1010F00082E495E00E94050860E871E082E495E0F2
:101100000E940508602F83E1DF91CF910F91FF903E
:10111000EF90DF90CF900C942004EF92FF920F930A
:101120001F93CF93DF93CDB7DEB78C0160E080E0F3
:101130000E942004609148056E7F609348056860B6
:1011400070E082E495E00E94340360E971E082E49B
:1011500095E00E940508B80182E495E00E94C90765
:1011600061E080E00E942004BE01655F7F4F82E461
:1011700095E00E94050862E089E00E9420044A8D03
:101180005B8D70E060E02AE082E495E00E94540705
:1011900063E083E00E94200410E000E083E0E82E9A
:1011A000F12C8C8D9701281B3109021713074CF481
:1011B00068E971E082E495E00E9405080F5F1F4F27
:1011C000F0CF10E000E08C8D8017110651F04CF04C
:1011D0006EE971E082E495E00E9405080F5F1F4F01
:1011E000F2CFDF91CF911F910F91FF90EF90089573
:1011F000FC0180819181009711F00C94BA1408953C
:101200000F931F93CF93DF93EC018881998100970F
:1012100059F02A813B812617370730F081E0DF91B2
:10122000CF911F910F9108958B016F5F7F4F0E94A7
:101230004315009759F0998388831B830A832C8177
:101240003D81232B59F7FC011082E8CF80E0E7CFE6
:10125000EF92FF920F931F93CF93DF93EC017B01EB
:101260008A01BA010E94000928813981811114C0C4
:101270002115310519F0C9010E94BA14198218828A
:101280001D821C821B821A82CE01DF91CF911F9199
:101290000F91FF90EF9008951D830C83B701C90152
:1012A0000E940916F1CF1F920F920FB60F921124D0
:1012B0002F933F934F935F936F937F938F939F935E
:1012C000AF93BF93EF93FF938091B900887F8036EF
:1012D00009F44AC0F0F5883209F4A7C018F5803146
:1012E00009F49BC0B8F4882309F4F9C0883009F4E4
:1012F00094C0FF91EF91BF91AF919F918F917F919A
:101300006F915F914F913F912F910F900FBE0F9072
:101310001F901895883109F488C0803251F7809366
:10132000AB0214C0803409F49DC040F48033B9F39B
:101330008833F9F68093AB0285ECB0C0803509F4B0
:1013400085C0883509F496C0883499F60E940D0747
:10135000D0CF883909F48CC038F5883729F050F49B
:10136000883611F0803729F683E08093AC02109222
:10137000AA0257C0883809F47BC0803919F0803838
:1013800009F0B7CF8091AA02803208F071C0E091D5
:10139000AA0281E08E0F8093AA028091BB00F0E048
:1013A000E657FD4F80833DC0803B39F0E0F4803A42
:1013B00009F479C0883A09F09CCF84E08093AC02AC
:1013C0001092890210928802E091D402F091D50225
:1013D00009958091880281110FC081E08093880275
:1013E0001092680209C0803C09F4A6CF883C09F439
:1013F000A3CF883B09F07DCFE091890281E08E0F79
:1014000080938902F0E0E859FD4F80818093BB0012
:10141000909189028091880229C08091D1028093A5
:10142000BB0085EC8093BC0064CF9091D00280918A
:10143000CF02981758F5E091D00281E08E0F80938B
:10144000D002F0E0E155FD4F8081E9CFE091D0027C
:1014500081E08E0F8093D0028091BB00F0E0E155D7
:10146000FD4F80839091D0028091CF029817C8F2EF
:1014700085E8D8CFE091D00281E08E0F8093D00232
:101480008091BB00F0E0E155FD4F80838091AE027A
:1014900081115CCF81E08093AD0284EA8093BC002F
:1014A0001092AC0226CF85EC8093BC001092AC0267
:1014B0008091AA02803230F4E091AA02F0E0E6576F
:1014C000FD4F10826091AA0270E0E091D202F0918B
:1014D000D3028AE892E009951092AA020ACF1092EC
:1014E000AB0234CF1F920F920FB60F9211242F939D
:1014F0003F938F939F93AF93BF93809119029091E5
:101500001A02A0911B02B0911C023091180223E034
:10151000230F2D3758F50196A11DB11D20931802F8
:101520008093190290931A02A0931B02B0931C029D
:1015300080911D0290911E02A0911F02B091200285
:101540000196A11DB11D80931D0290931E02A093D0
:101550001F02B0932002BF91AF919F918F913F9155
:101560002F910F900FBE0F901F90189526E8230F14
:101570000296A11DB11DD2CF1F920F920FB60F92EE
:1015800011242F933F934F935F936F937F938F9388
:101590009F93AF93BF93EF93FF9386EE92E00E94E9
:1015A000A502FF91EF91BF91AF919F918F917F9194
:1015B0006F915F914F913F912F910F900FBE0F90C0
:1015C0001F9018951F920F920FB60F9211242F9310
:1015D0008F939F93EF93FF93E091F602F091F702C0
:1015E0008081E091FC02F091FD0282FD1BC09081A0
:1015F0008091FF028F5F8F7320910003821741F06B
:10160000E091FF02F0E0EA51FD4F958F8093FF02D9
:10161000FF91EF919F918F912F910F900FBE0F909F
:101620001F9018958081F4CF2F923F924F925F9236
:101630006F927F928F929F92AF92BF92CF92DF92E2
:10164000EF92FF920F931F93CF93DF93EAEDF2E0B7
:101650001382128288EE93E0A0E0B0E08483958349
:10166000A683B78321E231E031832083E6EEF2E006
:101670001382128284839583A683B78383E391E0E8
:101680009183808385EC90E09587848784EC90E05B
:101690009787868780EC90E0918B808B81EC90E03F
:1016A000938B828B82EC90E0958B848B86EC90E020
:1016B000978B868B118E128E138E148EEEE9F3E0CB
:1016C00023E0208381E08183228397E0A92EA382F7
:1016D00092E0948385839683A7828087818782871F
:1016E000A38684873AEF732E7586268742E1B42E4F
:1016F000B786208B53E1C52EC18A928BB38A948B17
:10170000C58A868BB78A808FC18E828F6BEF662EDB
:10171000638E248F64E0658F268F278F90A361A34B
:1017200092A323A384A365A386A327A380A77CEF0A
:10173000572E51A622A7ADE0DA2ED3A624A7B1E1F9
:10174000EB2EE5A696A7D7A690ABE1AA82ABD3AACB
:1017500084ABE5AA86ABCDEF4C2E47AA20AFD6E0EE
:10176000FD2EF1AE22AF93AF94AFF5AE96AF97AF2B
:101770008093DE03F092DF038093E0039093E10314
:101780008093E2034FEF4093E3032093E4033AE0B6
:101790003093E5032093E6030FE00093E703909373
:1017A000E8033093E9039093EA030093EB038093FB
:1017B000EC033093ED038093EE030093EF038093EB
:1017C000F0034093F1032093F20354E15093F303A9
:1017D0002093F40310E11093F5039093F6035093D4
:1017E000F7039093F8031093F9038093FA0350934F
:1017F000FB038093FC031093FD038093FE0340934F
:10180000FF0320930004D5E0D09301042093020449
:10181000C8E0C093030490930404D093050490930C
:101820000604C093070480930804D09309048093AE
:101830000A04C0930B0480930C0440930D0420937E
:101840000E04BCE0B0930F0420931004ABE0A0930F
:10185000110490931204B093130490931404A09372
:10186000150480931604B093170480931804A09372
:10187000190480931A0479E1872E80921B04209327
:101880001C04E9E09E2E90921D0420931E047EE02D
:1018900070931F04909320043093210490932204AA
:1018A000709323048093240490922504809326044B
:1018B000709327049093280480922904E3E8F3E0CE
:1018C0001182108212820F2EFDE22F2E33243394C8
:1018D000F02D3482238215821682EAE2F4E020831E
:1018E00081832283A382948385839683A7828087C2
:1018F00081878287A386848775862687B786208B13
:10190000C18A928BB38A948BC58A868BB78A808F63
:10191000C18E828F638E248F658F268F278F90A331
:1019200061A392A323A384A365A386A327A380A76F
:1019300051A622A7D3A624A7E5A696A7D7A690AB23
:10194000E1AA82ABD3AA84ABE5AA86AB47AA20AFB3
:10195000F1AE22AF93AF94AFF5AE96AF97AF809351
:101960006A04F0926B0480936C0490936D048093EE
:101970006E0440936F04209370043093710420939D
:1019800072040093730490937404309375049093DD
:1019900076040093770480937804309379048093DD
:1019A0007A0400937B0480937C0440937D0420930D
:1019B0007E0450937F0420938004109381049093BD
:1019C000820450938304909384041093850480933D
:1019D000860450938704809388041093890480932D
:1019E0008A0440938B0420938C04D0938D0420931D
:1019F0008E04C0938F0490939004D093910490939D
:101A00009204C093930480939404D093950480939C
:101A10009604C0939704809398044093990420936C
:101A20009A04B0939B0420939C04A0939D049093EC
:101A30009E04B0939F049093A004A093A10480936C
:101A4000A204B093A3048093A404A093A50480935C
:101A5000A6048092A7042093A8049092A90420933E
:101A6000AA047093AB049093AC043093AD049093AC
:101A7000AE047093AF048093B0049092B10480934D
:101A8000B2047093B3049093B4048092B504E6EB6F
:101A9000F4E0208381832283A382948385839683C9
:101AA000A782808781878287A38684877586268719
:101AB000B786208BC18A928BB38A948BC58A868B1A
:101AC000B78A808FC18E828F638E248F658F268F19
:101AD000278F90A361A392A323A384A365A386A3C6
:101AE00027A380A751A622A7D3A624A7E5A696A739
:101AF000D7A690ABE1AA82ABD3AA84ABE5AA86AB0A
:101B000047AA20AFF1AE22AF93AF94AFF5AE96AF38
:101B100097AF8093F604F092F7048093F8049093C3
:101B2000F9048093FA044093FB042093FC0430935F
:101B3000FD042093FE040093FF049093000530936E
:101B400001059093020500930305809304053093EB
:101B500005058093060500930705809308054093CB
:101B6000090520930A0550930B0520930C0510934B
:101B70000D0590930E0550930F059093100510934B
:101B8000110580931205509313058093140510934B
:101B90001505809316054093170520931805D093DB
:101BA000190520931A05C0931B0590931C05D0932B
:101BB0001D0590931E05C0931F0580932005D093AB
:101BC000210580932205C09323058093240540932B
:101BD000250520932605B093270520932805A0937B
:101BE000290590932A05B0932B0590932C05A0937B
:101BF0002D0580932E05B0932F0580933005A0937B
:101C000031058093320580923305209334059092FC
:101C1000350520933605709337059093380530933A
:101C2000390590933A0570933B0580933C0590925B
:101C30003D0580933E0570933F059093400580924B
:101C40004105E2E4F5E0138212820F2EF5E42F2E17
:101C5000F1E03F2EF02D3182208211860F2EFEE31F
:101C60003F2EF02D348252876387EEE4F5E0208327
:101C700081832283A382948385839683A78280872E
:101C800081878287A386848775862687B786208B7F
:101C9000C18A928BB38A948BC58A868BB78A808FD0
:101CA000C18E828F638E248F658F268F278F90A39E
:101CB00061A392A323A384A365A386A327A380A7DC
:101CC00051A622A7D3A624A7E5A696A7D7A690AB90
:101CD000E1AA82ABD3AA84ABE5AA86AB47AA20AF20
:101CE000F1AE22AF93AF94AFF5AE96AF97AF8093BE
:101CF0008E05F0928F0580939005909391058093C7
:101D00009205409393052093940530939505209375
:101D100096050093970590939805309399059093B5
:101D20009A0500939B0580939C0530939D058093B5
:101D30009E0500939F058093A0054093A1052093E5
:101D4000A2055093A3052093A4051093A505909395
:101D5000A6055093A7059093A8051093A905809315
:101D6000AA055093AB058093AC051093AD05809305
:101D7000AE054093AF052093B005D093B1052093F5
:101D8000B205C093B3059093B405D093B505909375
:101D9000B605C093B7058093B805D093B905809375
:101DA000BA05C093BB058093BC054093BD05209345
:101DB000BE05B093BF052093C005A093C1059093C5
:101DC000C205B093C3059093C405A093C505809345
:101DD000C605B093C7058093C805A093C905809335
:101DE000CA058092CB052093CC059092CD05209317
:101DF000CE057093CF059093D0053093D105909385
:101E0000D2057093D3058093D4059092D505809325
:101E1000D6057093D7059093D8058092D905DF91A8
:101E2000CF911F910F91FF90EF90DF90CF90BF90D7
:101E3000AF909F908F907F906F905F904F903F906A
:101E40002F900895CF93DF93CDB7DEB7C052D14026
:101E50000FB6F894DEBF0FBECDBF789484B5826014
:101E600084BD84B5816084BD85B5826085BD85B53E
:101E7000816085BD80916E00816080936E001092BC
:101E80008100809181008260809381008091810037
:101E900081608093810080918000816080938000C8
:101EA0008091B10084608093B1008091B000816026
:101EB0008093B00080917A00846080937A00809152
:101EC0007A00826080937A0080917A0081608093AA
:101ED0007A0080917A00806880937A001092C10025
:101EE000E091F602F091F70282E08083E091F20245
:101EF000F091F3021082E091F402F091F5028FEC80
:101F000080831092FE02E091FA02F091FB0286E0DB
:101F10008083E091F802F091F902808180618083F2
:101F2000E091F802F091F902808188608083E0916D
:101F3000F802F091F902808180688083E091F802D4
:101F4000F091F90280818F7D8083CE0101960E94FD
:101F5000FB040E94540410E000E020E040E06DE249
:101F600071E082E090E00E940D0884EA91E00E9416
:101F7000F207F12CE12C812C912C6DE2A62EBB24D2
:101F8000B39472E0C72ED12C212C3324339421102A
:101F9000B7C0CE0101960E944C06CE0101960E9468
:101FA000A70589819A81899F802D11248B3F09F48F
:101FB00060C008F04BC08A3F61F783EB91E00E945C
:101FC000F2072224239419821A820E9402022B0112
:101FD0003C0186E990E0A0E0B0E0C35EDE4F88837C
:101FE0009983AA83BB83CD51D1400E940202641918
:101FF000750986099709683E734081059105A8F324
:10200000C35EDE4F88819981AA81BB81CD51D140C9
:102010000197A109B109C35EDE4F88839983AA8322
:10202000BB83CD51D14098EE490E93E0591E611CFF
:10203000711CC35EDE4F88819981AA81BB81CD511D
:10204000D140892B8A2B8B2B81F6A1CF8C3F09F4B1
:1020500048C08D3F09F09DCF81EC91E00E94F207CE
:10206000F3E0EF16F1040CF0AECF2FEFE21AF20A14
:1020700043C089EB91E00E94F207E114F10491F46E
:102080002FEFC21AD20A35E0C316D10419F4CC24BA
:10209000C394D12C8701282D492DB501C6010E947A
:1020A0000D0891CF81E0E816F10451F49DE2A916E4
:1020B00091E0B90689F04DE2A42EBB24B394EACF97
:1020C000A2E0EA16F10411F49324E4CFB3E0EB1696
:1020D000F10401F78324DECF35EFA32EBB24B394A4
:1020E000D9CF8EEB91E00E94F207E114F10409F4DC
:1020F0006ACFE1E0EE1AF108C7010E94D307CACF08
:102100001092840310928303C0928503B0928703D8
:10211000A092860390928803809289038BE1E3E882
:10212000F3E0DE01119601900D928A95E1F71D8E84
:102130001C8E19A218A2CE0182963E01BAEE6B0E39
:10214000711C3AE0DC011D921D9225E0EEE0F1E009
:1021500001900D922A95E1F7FC013796DF01232FBC
:102160001D922A95E9F7DC0152961C921E92519716
:1021700053961C9244968615970521F7FE013196D9
:102180005F01F12CE12C8E0109501F4F2801F2E074
:102190004F0E511C33243A94809185038E151F04F1
:1021A00009F00CF4EEC02FEFE21AF20ACF5EDE4F18
:1021B00019821882C151D140CD5EDE4F198218823A
:1021C000C351D140CB5EDE4F19821882C551D14038
:1021D0004AE0B801C7010E948A13F801019000206B
:1021E000E9F73197AF01401B510BB801CE018F5E6B
:1021F0009E4F0E942809C55FDE4F19821882CB507E
:10220000D140C35FDE4F19821882CD50D140C15FEB
:10221000DE4F19821882CF50D14048E050E066EC82
:1022200071E0CE01855F9E4F0E942809CB5EDE4F94
:1022300088819981C551D140CF5EDE4F88809980D9
:10224000C151D140C15FDE4FC880D980CF50D1404D
:10225000C80ED91E8114910409F476C0892B01F1AE
:10226000B601CE01855F9E4F0E940009882309F4C4
:102270006BC0C55FDE4F28813981CB50D140C15F33
:10228000DE4F88819981CF50D140B401820F931FD6
:102290000E940916C15FDE4FD982C882CF50D1405B
:1022A000C95EDE4F19821882C751D140C75EDE4F2A
:1022B00019821882C951D140C55EDE4F1982188239
:1022C000CB51D140C55FDE4F68817981CB50D14081
:1022D0006115710559F0C15FDE4F48815981CF50BA
:1022E000D140CE01895E9E4F0E942809C95EDE4F13
:1022F00068817981C751D140C7010197D8018D9379
:102300009C93C2010E9409168C819D81F801928BD9
:10231000818B338A84E1D501919601900D928A9543
:10232000E1F7CE01895E9E4F0E94F808CE01855FDD
:102330009E4F0E94F808CE018F5E9E4F0E94F808C3
:10234000F4E1AF0EB11C28CFC55FDE4F88819981C3
:10235000CB50D140009711F00E94BA14C55FDE4FF8
:1023600019821882CB50D140C15FDE4F198218828A
:10237000CF50D140C35FDE4F19821882CD50D1407B
:102380008FCF8AA19BA19F8F8E8F19A218A2D301F4
:102390001C92C551DF4F1882CB5ED040CE018451D4
:1023A0009F4F0E94FB040E9454048FEC91E00E9416
:1023B000F207F80111921192CF016DED71E00E94C8
:1023C00009168091860390918703D80152969C93B9
:1023D0008E93519783E053968C93EDB7FEB7749725
:1023E0000FB6F894FEBF0FBEEDBFADB7BEB71196E6
:1023F00084E1F80101900D928A95E1F781E090E087
:102400000E948D080FB6F894DEBF0FBECDBF23E04B
:10241000222E8C8D9D8D0397D1F38E010F5F1F4F60
:10242000CC24C394D12C94E1592E560131E0A31A47
:10243000B1088B818A151B0409F00CF465C1D80121
:10244000D4962C92D49791968D919C919F8F8E8F3C
:102450004801B3E28B0E911C5A9C70015B9CF00CFE
:102460001124E1E0F0E0EC0FFD1FEE0EFF1EF1E2A3
:10247000EF0EF11C5C9CC0015D9C900D112421E0CD
:1024800030E02C0F3D1F820F931FDC019196C35E3D
:10249000DE4FB983A883CD51D140F80184A98F3F85
:1024A00009F42CC18C8D9D8D81309105E9F3B40127
:1024B00086EE92E00E94050867EE71E086EE92E0FB
:1024C0000E940508D801D4964C9150E070E060E07D
:1024D0002AE086EE92E00E9454076DE471E086EEF9
:1024E00092E00E944507CE0184519F4F0E944C0606
:1024F000CE0184519F4F0E94A705C451DF4F388001
:10250000CC5ED040C351DF4F4880CD5ED040C45137
:10251000DF4F1882CC5ED040C351DF4F1882CD5EB2
:10252000D040311002C04420F1F2C551DF4F488243
:10253000CB5ED040F3013082B40186EE92E00E947F
:10254000050868EF71E086EE92E00E940508D80168
:10255000D2964D915C9170E060E02AE086EE92E0C8
:102560000E9454076CEF71E086EE92E00E9405082D
:10257000C551DF4F4881CB5ED040F3018081489F39
:10258000A0011124052E000C660B770B2AE086EEC5
:1025900092E00E9454078FEF91E00E94F207439C63
:1025A000C0011124D801D2962D913C91D3972817C0
:1025B000390708F085C081E092E00E94F207F80137
:1025C00014AA88A199A12DB73EB7245131090FB69D
:1025D000F8943EBF0FBE2DBFADB7BEB71196F70141
:1025E000252D01900D922A95E1F701960E948D0804
:1025F0000FB6F894DEBF0FBECDBFD801D4968C9134
:1026000081112DC08B818150990B8A159B0509F48E
:1026100072C0C601589EF001599EF00D112421E0B0
:1026200030E02C0F3D1FE20FF31F24AA88A199A1CF
:10263000ADB7BEB754970FB6F894BEBF0FBEADBFCF
:102640001196F701252D01900D922A95E1F701963B
:102650000E948D080FB6F894DEBF0FBECDBFD80123
:10266000D4968C91D497811124C0EFEFD496EC933B
:1026700088A199A12DB73EB7245131090FB6F8941E
:102680003EBF0FBE2DBFADB7BEB71196C35EDE4FC6
:10269000E881F981CD51D140252D01900D922A95E7
:1026A000E1F701960E948D080FB6F894DEBF0FBEC9
:1026B000CDBF6DE471E086EE92E00E944507EDCE5D
:1026C0008217930749F48AE092E00E94F207A3E0A0
:1026D000B0E0BD8FAC8F73CF281B390BD3963C93E2
:1026E0002E93D29783E192E00E94F207F80184A929
:1026F000815084AB66CF90E080E08CCF9FEFC91A09
:10270000D90A0C5E1F4F91CE88A199A1019699A379
:1027100088A37FCEBB274A3031F4992322F4BDE24F
:10272000909581959F4F0C949613BB27FB015527DD
:10273000AA27880F991FAA1FA41710F0A41B83951E
:102740005051B9F7A05DAA3308F0A95DA193009795
:1027500079F7B111B1931192CB010C94AF13DC0155
:10276000FC01672F71917723E1F7329704C07C91C8
:102770006D9370836291AE17BF07C8F308952F92CF
:102780003F924F925F926F927F928F929F92AF9201
:10279000BF92CF92DF92EF92FF920F931F93CF934E
:1027A000DF93CDB7DEB7CA1BDB0B0FB6F894DEBFE5
:1027B0000FBECDBF09942A88398848885F846E840B
:1027C0007D848C849B84AA84B984C884DF80EE8055
:1027D000FD800C811B81AA81B981CE0FD11D0FB65E
:1027E000F894DEBF0FBECDBFED010895A1E21A2E11
:1027F000AA1BBB1BFD010DC0AA1FBB1FEE1FFF1FA5
:10280000A217B307E407F50720F0A21BB30BE40BF4
:10281000F50B661F771F881F991F1A9469F760953B
:102820007095809590959B01AC01BD01CF010895F5
:10283000EE0FFF1F0590F491E02D09940F931F9365
:10284000CF93DF938230910510F482E090E0E09125
:10285000DC05F091DD0530E020E0B0E0A0E030974D
:1028600099F42115310509F44AC0281B390B24308D
:102870003105D8F58A819B816115710589F1FB01CC
:1028800093838283FE0111C04081518102811381B3
:1028900048175907E0F04817590799F4109761F065
:1028A00012960C93129713961C933296CF01DF91D8
:1028B000CF911F910F9108950093DC051093DD05D2
:1028C000F4CF2115310551F04217530738F0A90113
:1028D000DB019A01BD01DF01F801C1CFEF01F9CFA2
:1028E0009093DD058093DC05CDCFFE01E20FF31F51
:1028F000819391932250310939832883D7CF209136
:10290000DA053091DB05232B41F42091020130914F
:1029100003013093DB052093DA052091000130910B
:1029200001012115310541F42DB73EB74091040155
:1029300050910501241B350BE091DA05F091DB0580
:10294000E217F307A0F42E1B3F0B2817390778F086
:10295000AC014E5F5F4F2417350748F04E0F5F1FE5
:102960005093DB054093DA05819391939FCFF0E07C
:10297000E0E09CCFCF93DF930097E9F0FC01329722
:1029800013821282A091DC05B091DD05ED0130E0EB
:1029900020E01097A1F420813181820F931F2091B4
:1029A000DA053091DB052817390709F061C0F0938B
:1029B000DB05E093DA05DF91CF910895EA01CE17A8
:1029C000DF07E8F54A815B819E0141155105B1F7AA
:1029D000E901FB83EA8349915991C40FD51FEC1794
:1029E000FD0761F4808191810296840F951FE901B2
:1029F00099838883828193819B838A83F0E0E0E0DE
:102A000012968D919C9113970097B9F52D913C9159
:102A10001197CD010296820F931F2091DA05309114
:102A2000DB052817390739F6309751F51092DD0587
:102A30001092DC05B093DB05A093DA05BCCFD383FD
:102A4000C28340815181840F951FC817D90761F453
:102A50004E5F5F4F88819981480F591F5183408392
:102A60008A819B81938382832115310509F0B0CF40
:102A7000F093DD05E093DC059ECFFD01DC01C0CFC6
:102A800013821282D7CFB0E0A0E0E9E4F5E10C9424
:102A9000C1138C01009751F4CB010E941E148C01CC
:102AA000C801CDB7DEB7E0E10C94DD13FC01E60F01
:102AB000F71F9C0122503109E217F30708F49DC06B
:102AC000D901CD91DC911197C617D70798F0C53081
:102AD000D10530F3CE0104978617970708F3C61B7C
:102AE000D70B2297C193D1936D937C93CF010E9412
:102AF000BA14D6CF5B01AC1ABD0A4C018C0E9D1ED8
:102B0000A091DC05B091DD05512C412CF12CE12C7C
:102B1000109731F58091DA059091DB0588159905BC
:102B200009F05CC04616570608F058C080910001B5
:102B300090910101009741F48DB79EB74091040137
:102B400050910501841B950BE817F90708F055C053
:102B5000F093DB05E093DA05F90171836083A0CF80
:102B60008D919C91119712966C90129713967C9070
:102B70001397A815B90559F56C0142E0C40ED11C94
:102B8000CA14DB0420F1AC014A195B09DA01129680
:102B9000159780F06282738251834083D9016D93CF
:102BA0007C93E114F10471F0D7011396FC93EE933A
:102BB000129776CF22968C0F9D1FF9019183808307
:102BC000F301EFCFF093DD05E093DC0569CF481604
:102BD000590608F42C017D01D3019ACFCB010E9444
:102BE0001E147C01009749F0AE01B8010E94001646
:102BF000C8010E94BA14870153CF10E000E050CF03
:102C0000FB01DC0102C001900D9241505040D8F709
:102C10000895FB01DC0101900D920020E1F7089579
:042C2000F894FFCF56
:102C24000000DE05800000004000140054006E69BE
:102C3400636B0000000000000000000000000000C2
:102C4400000C01DF00D904B500D800C500B60000AF
:102C5400000000C7022702540214038502630277AE
:102C64000200000000D1042702D904D8040D0A0090
:102C74005B20200020205D20506C617965727320F8
:102C8400005B2000205D20506F696E747320005833
:102C94000020205D20446F75626C6520696E200001
:102CA40020205D20446F75626C65206F7574200070
:102CB400526F756E643A20005B2058205D005B20E3
:102CC40020205D00446172747320737461727465B2
:102CD400642E0053746172740053746F70005570E5
:102CE40000446F776E00506C617965722023005345
:102CF40074776F727A6F6E6F2067726500506C61C3
:102D04007965722023310020617474656D70747369
:102D1400206C6566743A2000202D2000282D00299F
:102D24000009546F206D7563680046696E697368A5
:062D34006564004F4B0036
:00000001FF
